:020000040800F2
:10000000B8070020D5000008252C00086129000849
:1000100000000000000000000000000000000000E0
:10002000000000000000000000000000E5300008B3
:100030000000000000000000132E0008E730000858
:100040000501000805010008050100080501000878
:100050000501000805010008050100080501000868
:100060000501000805010008E50700080501000872
:100070000501000805010008050100080501000848
:100080000501000800000000000000000501000854
:100090000000000005010008050100080501000836
:1000A0000000000005010008050100080501000826
:1000B0000501000800000000050100080501000816
:1000C0000348854600F002FB00480047853A0008D7
:1000D000B80700200C4880F308880C480168090E16
:1000E0000B4A914205D10B480B4901600B480C4962
:1000F00001600C4880470C480047FEE7FEE7FEE73A
:10010000FEE7FEE7FEE70000B8070020040000005D
:100110001F00000018100240010000000000014014
:100120000000000045310008C100000830B50B4652
:10013000014600202022012409E00D46D5409D42C1
:1001400005D31D469540491B254695404019154647
:10015000521E002DF1DC30BDF0B51FB40646002064
:1001600082B005464024019100901BE0019922468F
:100170000F46304600F020F8049A059B801A9941FA
:1001800010D310461946224600F09EF9361A8F41C8
:100190000197224601200021009F00F095F93818B0
:1001A0004D4100902046641E0028DFDC019B009832
:1001B0002946324607B0F0BD10B5202A04DB0846B8
:1001C000203AD040002110BD0B46D340D04020241F
:1001D000A21A91400843194610BDD2B201E0027044
:1001E000401C491EFBD270470022F6E710B51346AB
:1001F0000A4604461946FFF7F0FF204610BDF8B541
:1002000002464A40D40F42004B0052085B089A4213
:1002100002D20246084611464A0023D0C30D4A00C6
:10022000DDB2120EAD1A202D35DA49020126490A37
:10023000F6058A19002C00D0524220214F1B11468E
:10024000B9402A411018C20D9A4221D0002C17D073
:10025000012D08DCDA05801AD20F8019D207DBB233
:1002600000F04AF9F8BDDA05801A012340001B06A8
:10027000C01880185A428018CA0F1043490007E07E
:100280004908C2071143DA05801A8019400880180E
:1002900000F02AF9F8BD61000122511A001BF7E7AE
:1002A0000122D2075140AAE70122D2075040A6E717
:1002B000024670B54A40D30FDB0740002DD04A00FC
:1002C0002AD0010E140E000212020919400A520A25
:1002D0008418E50104465443000A120A2E045043D0
:1002E000A4194219200CC543AA18120C0125AD030C
:1002F000521C521912047F39240400D0521C10439E
:1003000001D44000491EC2B20C06C0092018401C8E
:100310004008802A02D003E0002070BD4008400061
:10032000002900DA0020184370BD70B502464A402B
:10033000D50F40004A00ED0740085208002814D0AD
:10034000002A12D0C40DD30D41020120C005520273
:10035000490A520AE41A091812187D34914201D34D
:10036000641C00E04900002C01DA002070BD00236D
:10037000914201D3891A0343400849000028F7D16C
:1003800000290AD0914202D10121C90705E091421A
:1003900001D2012101E00121C943E005C018401943
:1003A00000F0A2F870BDC217C10F504010B5401840
:1003B000CA079623002100F09FF810BDC20F41002C
:1003C00040020123400ADB05D207090EC0187F292D
:1003D00001DA00207047962903DC9623591AC84099
:1003E00001E096398840002AF4D040427047C20F9D
:1003F000D207400040080BD0C10D0723DB01C9180C
:1004000040020905400A1143C208400711437047E2
:10041000002001467047000010B5002904DB0124CC
:10042000E40740428C412146002B04DB1C4601239B
:10043000DB075242A3418B4200D1824210BD000033
:1004400010B5002904DB0124E40740428C41214619
:10045000002B04DB1C460123DB075242A3419942D7
:1004600000D1904210BD0000CB0FDB07490010B552
:10047000490802460A4307D00A0D07240903E4018C
:10048000090B121B002A01DC002010BDC900440F1B
:100490000C43C100E018D205801800F025F810BD0B
:1004A0000122D207002800DB101A002900DB511AB4
:1004B000814270470122D207002800DB101A002970
:1004C00000DB511A8842704710B5202A04DB014630
:1004D000203A9140002010BD914020239C1A0346F1
:1004E000E3401943904010BD002904DA401C490044
:1004F00001D140084000704770B40024050C05D1BC
:100500001024000402D1002921D01124050E01D1AC
:1005100000020834050F01D10001241D850F01D10F
:100520008000A41C002801DB4000641C002908D0C6
:1005300020252E1B0D46F540A14000D00121294366
:10054000084301061B1B000ADB1D02D5002070BCFE
:100550007047DB05181880180029F8DA401C49009C
:10056000F5D170BC40084000704710B5002B08DA88
:100570000024401C614192185B411A4301D140089C
:10058000400010BDF0B51FB482B005460C0003D08A
:10059000084603F019F802E003F016F8203002468E
:1005A000009021462846FFF78FFF049B059A0446DA
:1005B0000F4618431143084314D0184610431BD06C
:1005C000009840210A1A18460599FFF7F5FD0546DF
:1005D0000E46009A05990498FFF776FF084305D068
:1005E000012004E02046394607B0F0BD0020C117C5
:1005F00005430E432C43374300990E986305401A78
:100600007905E40A00220C43FD0A0A3002D50020D5
:100610000146E9E70105101969410C9C0D9D00197F
:100620006941FFF7A2FFDFE7FEB500231A461B1A58
:100630008A4103DB0020014603B0F0BD4A000D03F0
:1006400001212D0B0905520D0D43D10702D10018D0
:100650006D41521E5110FF31FF3101310027044618
:100660003E463846009701910246012100200905C7
:10067000FFF7A2FDC3197141F818324684468E4631
:100680004A4161462846611A904104D36046241AC3
:10069000954176461F46241900986D41401C0090F4
:1006A0003428E1DDF91930467041091BA84103D215
:1006B0000022D243134601E00022134601980105AF
:1006C000381C7141FFF751FFB6E70000064C0125C9
:1006D000064E05E0E36807CC2B430C3C98471034EA
:1006E000B442F7D3FFF7F0FC883B0008A83B0008B2
:1006F00030B58C180278401C13071B0F01D103780A
:10070000401C120906D10278401C03E005780D70E8
:10071000401C491C5B1EF9D101E00B70491C521EA4
:10072000FBD1A142E6D3002030BD00003EB5044617
:100730000D46022000900E480560456000200C49DF
:100740008860C860082008612188684681806188C7
:10075000C180A18801816B4601AA0549054800F0C6
:100760005EF8002801D001203EBD0020FCE700001B
:10077000AC010020EC01002000200849086048601E
:100780008860C86008614861012088610020C861F4
:10079000012008620020486270470000C401002068
:1007A00010B5FFF7E9FF0649064800F0DDF800F054
:1007B0000BF800BF034800F085FA0028FAD110BDFD
:1007C000C4010020EC0100200020054908604860B9
:1007D0008860C86008200861002008757047000024
:1007E000AC01002010B5034800F09DFA024800F06B
:1007F0009AFA10BD78020020BC02002010B5044611
:10080000054A2168881A1421FFF790FC80002064B3
:1008100001480838E06310BD080002407047FFB58A
:1008200081B004460D462020005D0090206883685A
:10083000A868002800D100E000BF0098012802D07D
:10084000009802287DD1012080061840002809D197
:100850000120C0061840002804D1012000071840DC
:10086000002873D0032000061840010E022907D982
:10087000606A0126F60530436062012005B0F0BDD4
:1008800001208840049E3060A868002809D128888B
:100890004005EE6830432668FF3681360F01F0517F
:1008A0000AE06868C000AE683043EE6830432668EE
:1008B000FF3681360F01F0512E692068FF308130FC
:1008C0000F01C0194660287D01280ED12068FF3035
:1008D00081300E0180194068FF26013630432668BA
:1008E000FF3681360F01F6197060D07900069679CF
:1008F0003604304356793602304316793043266841
:10090000FF3681360F01F619F060D0780006967830
:100910003604304356783602304316783043266822
:10092000FF3681360F01F619B0602068FF30813044
:100930000E018659012006432068FF3081300F01E7
:1009400001E00AE002E0C651002097E7606A012654
:10095000760530436062012090E7606A0126B604A4
:1009600030436062012089E7F0B504460A462168F9
:100970002020055D012D01D0022D71D10120400202
:1009800040580126304376027050107DC606F60EA0
:100990000123B34087208000405898438726B60043
:1009A0007050D06900281DD18320800040589843A2
:1009B0008326B6007050908900049688B6B2304302
:1009C0005669F6000927BF01CF19B85110890004F4
:1009D0001688B6B230435669F6000927BF01CF1911
:1009E000F6197060D06901281DD18320800040581D
:1009F00018438326B6007050108800049688B6B25B
:100A000030435669F6000927BF01CF19B851108944
:100A100000049689B6B230435669F6000927BF0133
:100A2000CF19F61970609069002807D181208000E5
:100A3000405898438126B600705006E0812080001F
:100A4000405818438126B60070501069002808D11C
:100A500085208000405898438526B600705007E0F6
:100A60001AE085208000405818438526B600705053
:100A7000106A012806D18720800040581843872635
:100A8000B600705001204002405846087600012010
:100A9000400246500020F0BD606A0126B604304393
:100AA00060620120F7E770B50446002C01D10120F7
:100AB00070BD2020005D002802D1204600F0B2F871
:100AC00020680068012108432168086000F0DEFA10
:100AD00005460EE000F0DAFA401B0A2809D9606AE0
:100AE00001214904084360620521202001550120AD
:100AF000DEE720684068C007C00F0028EAD0206801
:100B00000068022188432168086000F0BFFA0546AA
:100B10000EE000F0BBFA401B0A2809D9606A0121E7
:100B20004904084360620521202001550120BFE7E8
:100B300020684068022108400028EAD1207E012870
:100B400006D120680068802108432168086005E01C
:100B5000206800688021884321680860607E012841
:100B600006D120680068402108432168086005E03C
:100B7000206800684021884321680860A07E012821
:100B800006D120680068202108432168086005E03C
:100B9000206800682021884321680860E07E0128E1
:100BA00006D120680068102188432168086005E0AC
:100BB000206800681021084321680860207F012810
:100BC00006D120680068082108432168086005E014
:100BD000206800680821884321680860607F012838
:100BE00006D120680068042108432168086005E0F8
:100BF000206800680421884321680860E168A068D3
:100C0000084321690843616908436168491E084334
:100C10002168C86100206062012120200155002068
:100C200046E7000010B586B00446142101A8FFF77E
:100C3000DBFA2249206888423DD100BF2048C069C4
:100C40000121490608431E49C8610846C0690121BF
:100C500049060840009000BF00BF00BF1848406927
:100C600009120843164948610846406901214904B0
:100C70000840009000BF00BF881101900220029040
:100C800000200390032004900420059001A909206E
:100C9000C00600F005F90120000301900220029037
:100CA00000200390032004900420059001A909204E
:100CB000C00600F0F5F806B010BD0000006400406A
:100CC0000010024070B504462020005D012823D1A9
:100CD000022120200155206800684008400021685A
:100CE000086000F0D3F905460EE000F0CFF9401B94
:100CF0000A2809D9606A0121490408436062052174
:100D000020200155012070BD20684068C007C00F39
:100D10000028EAD16062F6E7606A0121C90408434D
:100D200060620120EFE770B50446E06B056820685B
:100D300006680420216C8840284000281BD004202D
:100D40003040002817D02068006820210840002883
:100D500005D12068006804218843216808600420C8
:100D6000216C8840E16B4860E06A002852D0204640
:100D7000E16A88474EE00220216C88402840002824
:100D800023D00220304000281FD020680068202196
:100D90000840002808D1206800680A21884321689B
:100DA00008600121212001550220216C8840E16B5F
:100DB000486000BF00212020015500BFA06A002824
:100DC00028D02046A16A884724E00820216C88406A
:100DD000284000281ED00820304000281AD0206863
:100DE00000680E218843216808600120216C88403A
:100DF000E16B48600120A06301212120015500BF63
:100E000000212020015500BF206B002802D0204681
:100E1000216B884770BD000070B504460025002C8A
:100E200001D1012070BD02212120015520680568F3
:100E30000F480540A16860680843E16808432169DC
:100E4000084361690843A1690843E1690843054310
:100E5000206805602046FFF7D1FC0020A063012137
:100E6000212001550021202001550020DAE7000053
:100E70000FC0FFFF70B5044600F008F9064625468E
:100E8000681C002802D0054800782D1800BF00F02B
:100E9000FDF8801BA842FAD370BD0000500100206D
:100EA00078B503460A460021DAE001268E40146830
:100EB0003440002C7ED01579AD07AD0F012D04D044
:100EC0001579AD07AD0F022D18D198684E00032596
:100ED000B5400646AE4330464E00D568B54028437F
:100EE0009860586801258D400646AE43304610266E
:100EF000556835402D098D40284358601579AD0758
:100F0000AD0F032D0BD0D8684E000325B540064623
:100F1000AE4330464E009568B5402843D8601579F9
:100F2000AD07AD0F022D15D1CD08AE001D46203501
:100F3000A8594D07EE0E0F25B5400646AE43304684
:100F40004E07F60E1569B5402843CD08AD001E4684
:100F50002036705118684E000325B5400646AE4352
:100F600030461579AD07AD0F4E00B54028431860E7
:100F70000326360455683540002D70D000BF3B4D28
:100F8000AD6901263543394EB5613546AD69ED078A
:100F9000ED0F009500BF00BF354D8E08B600A85973
:100FA0008D072E0F0F25B5400646AE433046092566
:100FB000ED0600E053E0AB4201D100250AE02D4DE3
:100FC000AB4201D1012505E02B4DAB4201D10225F9
:100FD00000E005258E07360FB5402843244D8E08C6
:100FE000B600A851254D28680546A5432846012688
:100FF000360455683540002D02D005462543284665
:101000001E4D286068680546A543284601267604DB
:1010100055683540002D02D0054625432846174D1A
:101020006860A8680546A543284601263605556828
:101030003540002D02D00546254328460F4DA860B7
:10104000E8680546A54328460126760555683540DB
:10105000002D02D0054625432846084DE860491C6E
:101060001568CD40002D00D01FE778BD001002406C
:101070000800014000040048000800480004014046
:10108000002A01D0816100E0816270470148006858
:1010900070470000480100200348006803490978B0
:1010A00040180149086070474801002050010020A5
:1010B00010B5064800681021084304490860002064
:1010C00000F006F800F02EF8002010BD00200240CD
:1010D00070B50446104801787D20C000FFF726F85F
:1010E000064631460D480068FFF720F8054601F036
:1010F00067F9002801D0012070BD042C07D200221E
:101100002146501E00F046F80548046001E0012029
:10111000F2E70020F0E70000500100205401002019
:101120004C01002008B500BF114880690121084327
:101130000F49886108468069C007C00F009000BF52
:1011400000BF00BF0846C069090408430849C861D8
:101150000846C06909040840009000BF00BF00BFF6
:1011600004480068102108430249086000BF08BD18
:1011700000100240000001400146002905DBCB06BB
:10118000DB0E01229A40024B1A6000BF704700003C
:1011900000E100E070B504460D461646294620469B
:1011A00002F042FA70BD000070B504460D46002CF6
:1011B00001D1012070BD58480068C007C00FA84287
:1011C0000ED2554800684008400028435249086044
:1011D00008460068C007C00FA84201D00120E9E717
:1011E000022120680840022814D104212068084008
:1011F000042807D14948406807210902884340185C
:101200004649486045484068F0218843A168084342
:10121000424948602078C007C00F002847D0606866
:10122000012808D13D4800680121490408400028F0
:1012300021D10120BEE76068022808D13748006844
:10124000012149060840002815D10120B2E7606855
:10125000032808D13148406B0121090408400028C7
:1012600009D10120A6E72D48006802210840002886
:1012700001D101209EE7294840688008800061680C
:10128000084326494860FFF701FF064607E0FFF7DD
:10129000FDFE801B2249884201D903208AE71F48AE
:1012A00040680C210840616889008842EFD11A48E3
:1012B0000068C007C00FA8420ED917480068400850
:1012C000400028431449086008460068C007C00F62
:1012D000A84201D001206DE70421206808400428BD
:1012E00008D10E484068072109028843E168084395
:1012F0000A49486000F01AF808494968F02211408C
:101300000909084A515CC840074908600020FFF7F6
:10131000DFFE00204EE700000020024000100240E7
:1013200088130000703B000854010020F0B589B01C
:1013300035A001460EC9C06805AC0EC4089036A0A1
:1013400001460EC9C06801AC0EC4049000250024FB
:101350000027002600200090334845680C202840D4
:10136000002849D0042804D0082805D00C2842D1F0
:101370003EE02E48009042E00F2080042840800C80
:1013800005A90E5C2848C06A0007000F01A90C5C83
:101390000320C00328400121090488420AD12246C3
:1013A000002322481946FEF7D7FE314602F023F902
:1013B00007461BE00320C00328400321C9038842DD
:1013C0000AD1224600231A481946FEF7C5FE3146C7
:1013D00002F011F9074609E0224600231348194696
:1013E000FEF7BAFE314602F006F90746009706E01E
:1013F0000F48009003E000BF0C48009000BF00BF02
:10140000009809B0F0BD00000203040506070809B2
:101410000A0B0C0D0E0F101001020304050607083D
:10142000090A0B0C0D0E0F100010024000127A007A
:10143000006CDC02FEB50446002C01D10120FEBD8B
:101440002078C007C00F002872D0FC4840680C21EB
:10145000084004280CD0F94840680840082813D1F7
:10146000F6484068490308400121090488420BD12D
:10147000F248006801214904084000286BD06068E8
:10148000002868D10120DAE700BF6068012807D191
:10149000EA480068012109040843E849086031E08E
:1014A000606800280ED1E5480068012109048843DE
:1014B000E249086008460068012189048843DF4941
:1014C00008601FE0606805280ED1DC480068012133
:1014D00089040843D94908600846006801210904C5
:1014E0000843D64908600DE0D4480068012109048A
:1014F0008843D2490860084600680121890488436E
:10150000CE49086000BF6068002812D0FFF7BEFD1A
:10151000054606E0FFF7BAFD401B642801D9032009
:101520008DE7C64800680121490408400028F1D031
:1015300011E0FFF7ABFD054606E0FFF7A7FD401BF6
:10154000642801D903207AE7BC48006801214904D6
:1015500008400028F1D1022120680840022862D109
:10156000B64840680C21084000280CD0B3484068B9
:10157000084008281CD1B1484068490308400121AF
:10158000C903884214D1AD480068022108400028F0
:1015900004D0E068012801D0012050E7A748006886
:1015A000F82188432169C9000843A44908603AE04A
:1015B000E068002820D0A1480068012108439F4925
:1015C0000860FFF763FD054606E0FFF75FFD401B7F
:1015D000022801D9032032E7984800680221084018
:1015E0000028F2D095480068F82188432169C90095
:1015F00008439249086016E090480068400840009F
:101600008E490860FFF742FD054606E0FFF73EFD04
:10161000401B022801D9032011E7884800680221F5
:1016200008400028F2D1082120680840082831D15C
:10163000E069002817D08148406A012108437F49AA
:101640004862FFF723FD054606E0FFF71FFD401B3C
:10165000022801D90320F2E67848406A02210840B6
:101660000028F2D016E07548406A400840007349EF
:101670004862FFF70BFD054606E0FFF707FD401B3C
:10168000022801D90320DAE66C48406A02210840AA
:101690000028F2D1042120680840042872D10020DB
:1016A00001906648C0698906084000280ED100BF35
:1016B0006248C06908436149C8610846C0690904B5
:1016C0000840009000BF00BF012001905C48006806
:1016D000FF2101310840002816D15948006808430D
:1016E00057490860FFF7D2FC054606E0FFF7CEFC3D
:1016F000401B642801D90320A1E651480068FF215E
:10170000013108400028F1D000BFA068012806D1AF
:101710004A48006A01210843484908622AE0A06853
:1017200000280BD14548006A41084900434801623E
:10173000006A04218843414908621BE0A06805282B
:101740000CD13E48006A042108433C49086208461F
:10175000006A01210843394908620BE03748006AF2
:1017600040084000354908620846006A0421884361
:101770003249086200BFA068002813D0FFF786FC3A
:10178000054608E02BE0FFF781FC401B2D4988420D
:1017900001D9032053E62948006A022108400028A5
:1017A000F1D011E0FFF772FC054607E0FFF76EFC91
:1017B000411B2448814201D9032040E61F48006AAA
:1017C000022108400028F1D10198012806D11B48C8
:1017D000C0690121090788431849C86100BF102169
:1017E0002068084010285FD1606901282CD1134877
:1017F000406B04210843114948630846406B0121AE
:1018000008430E494863FFF741FC054606E0FFF731
:101810003DFC401B022801D9032010E60748406B1D
:10182000022108400028F2D00448406BF821884388
:10183000A169C90008430149486335E0001002402E
:1018400000700040881300006069401D00280FD11F
:101850008648406B04218843844948630846406BAE
:10186000F8218843A169C9000843804948631BE007
:101870007E48406B042108437C4948630846406B1E
:10188000400840004863FFF701FC054606E0FFF70B
:10189000FDFB401B022801D90320D0E57348406BB3
:1018A000022108400028F2D1202120680840202889
:1018B00052D16E4840680C2108400C280AD06B4871
:1018C00040680840082811D168484068490308402A
:1018D00088420BD16548406B01210904084000286B
:1018E0003AD0206A012837D00120A8E5206A0028D4
:1018F00019D05E48406B0121090408435B494863E5
:10190000FFF7C4FB054606E0FFF7C0FB401B0228BB
:1019100001D9032093E55548406B01210904084093
:101920000028F1D018E05148406B01210904884398
:101930004E494863FFF7AAFB054606E0FFF7A6FB02
:10194000401B022801D9032079E54848406B01215A
:10195000090408400028F1D1606A00284FD04348AC
:1019600040680C210840082864D0606A022847D1EA
:101970003E4800680121090688433C490860FFF79A
:1019800085FB054606E0FFF781FB401B022801D9D5
:10199000032054E535480068012149060840002825
:1019A000F1D100BF3148C06A00090001216B084332
:1019B0002E49C862A16AE06A08432C4949687B2223
:1019C000D203914308432949486000BF0846006894
:1019D00001210906084325490860FFF757FB054622
:1019E00006E0FFF753FB401B022801D9032026E540
:1019F0001E4800680121490608400028F1D033E064
:101A00001A48006801210906884318490860FFF751
:101A10003DFB054606E0FFF739FB401B022801D9D4
:101A200003200CE511480068012149060840002800
:101A3000F1D119E0606A012800D100E50B48466841
:101A4000C76A0320C0033040A16A88420AD139071F
:101A5000090F206B814205D10F2080043040E16ADC
:101A6000884201D00120EAE40020E8E400100240AE
:101A700070B50446002C01D1012070BD606A0028B9
:101A800008D1FF2105316068884200D105E00021BE
:101A9000E16102E00021216161610021A1625D201C
:101AA000005D002804D15C200155204600F066F856
:101AB00002215D200155206800684021884321688B
:101AC000086007210902E068884201D9002501E089
:101AD00001252D030F210902E068884206D0072165
:101AE0000902E068884201D00021A162FF2105318E
:101AF0006068084021229202A16811400843022236
:101B0000216911400843217DC907C90F084312020A
:101B1000A169114008433822E1691140084380223D
:101B2000216A114008439201A16A114008432168CB
:101B30000860A069000C042108401022616A11406D
:101B400008430822616B114008430F221202E1682A
:101B500011400843012109032940084321684860D6
:101B60002068C0690121C90288432168C86100203A
:101B7000206601215D20015500207EE710B586B06A
:101B80000446142101A8FEF72FFB3449206888423F
:101B900062D100BF324880698914084330498861A6
:101BA0000846806989140840009000BF00BF00BF4C
:101BB0002B48406949010843294948610846406962
:101BC000012149040840009000BF00BFE0200190BF
:101BD0000220029000200390032004900020059032
:101BE00001A90920C006FFF75BF91E481E490860DD
:101BF0000020486000211C4881608021C1600021D4
:101C000001614161202181610902C161FFF704F98D
:101C1000002801D0FEF702FE00BF1348A065446211
:101C200000BF10481430114908601020486000219E
:101C30000E4881608021C1600021016141618161A4
:101C4000C161FFF7E9F8002801D0FEF7E7FD00BF0A
:101C500006486065446200BF06B010BD0030014018
:101C6000001002401C00024078020020BC0200204C
:101C7000FFB583B0044616461D4600200290FF21A2
:101C80000531606888420ED1A06800280BD104217C
:101C90005D20015533460095049A1146204600F018
:101CA000B2F907B0F0BD00BF5C20005D012801D192
:101CB0000220F6E701215C20015500BFFFF7E6F99D
:101CC00007465D20005D012802D002200290AAE0B4
:101CD0000498002801D0002E02D101200290A2E039
:101CE00004215D20015500202066049820644420D2
:101CF0000653462006530020A063A087E087E064D7
:101D0000206507210902E068884207D920684068F9
:101D10000121090388432168486006E02068406883
:101D2000012109030843216848600121C903A06813
:101D300088420CD1206800684021884321680860EF
:101D400020680068012189038843216808602068B1
:101D5000006840210840402804D0206800680843FB
:101D60002168086007210902E068884226D820E03F
:101D700020688068C007C00F00280DD02068007B55
:101D8000216C0870206C401C20644620005B401EC3
:101D900081B2462001530CE0FFF778F9C01BA8423E
:101DA00002D3681C002801D1002D02D1032002902B
:101DB00039E04620005B0028DAD125E020E02068E9
:101DC0008068C007C00F00280DD02068C068216C53
:101DD0000880206C801C20644620005B401E81B27D
:101DE000462001530CE0FFF751F9C01BA84202D373
:101DF000681C002801D1002D02D10320029012E0BE
:101E00004620005B0028DAD13A462946204601F0F8
:101E100001F8002801D020202066206E002801D083
:101E20000120029000BF01215D20015500BF00216B
:101E30005C20015500BF029833E7FFB583B004462C
:101E400016461D460020029000BF5C20005D012860
:101E500002D1022007B0F0BD01215C20015500BF76
:101E6000FFF714F9074601965D20005D012802D0B6
:101E700002200290BDE00498002801D0002E02D17B
:101E800001200290B5E003215D200155002020666D
:101E90000498A063A687E6870020206400214420E0
:101EA00001534620015300202065E0640121C9034D
:101EB000A06888420CD120680068402188432168CE
:101EC00008602068006801218903084321680860D0
:101ED0002068006840210840402804D0206800683D
:101EE00008432168086007210902E068884232D966
:101EF0006068002802D00198012809D1A06B0088F1
:101F00002168C860A06B801CA063E08F401EE08742
:101F10001DE0206880680221084002280AD1A06BD9
:101F200000882168C860A06B801CA063E08F401E01
:101F3000E0870CE0FFF7AAF8C01BA84202D3681C98
:101F4000002801D1002D02D10320029051E0E08F42
:101F50000028DED131E06068002802D00198012815
:101F600009D1A06B007821680873A06B401CA063A6
:101F7000E08F401EE0871DE0206880680221084055
:101F800002280AD1A06B007821680873A06B401C5E
:101F9000A063E08F401EE0870CE0FFF777F8C01BDE
:101FA000A84202D3681C002801D1002D02D10320D1
:101FB00002901EE0E08F0028DED13A4629462046F6
:101FC00000F06FFF002801D020202066A0680028C4
:101FD00009D100BF00902068C06800902068806828
:101FE000009000BF00BF206E002801D001200290A9
:101FF00000BF01215D20015500BF00215C2001557B
:1020000000BF029826E7FFB585B004461D460E9E28
:10201000012001900020009000BF5C20005D01289D
:1020200002D1022009B0F0BD01215C20015500BFA2
:10203000FFF72CF807465D20005D02906068039072
:102040000495029801280DD0FF210531039888429C
:1020500005D1A068002802D10298042802D00220ED
:102060000090FBE00698002804D00798002801D0D3
:10207000002D02D101200090F0E05D20005D0428D9
:1020800002D005215D2001550020206607982064BC
:1020900046200553442005530698A063E587A5878D
:1020A0000020E064206507210902E068884207D922
:1020B000206840680121090388432168486006E0E0
:1020C00020684068012109030843216848602068AE
:1020D000006840210840402804D020680068084378
:1020E0002168086007210902E068884254D96068C5
:1020F000002802D00498012809D1A06B008821682B
:10210000C860A06B801CA063E08F401EE0873BE0AE
:102110002068806802210840022811D1E08F002841
:102120000ED0019801280BD1A06B00882168C860EF
:10213000A06B801CA063E08F401EE0870020019010
:1021400020688068C007C00F002812D04620005BBE
:1021500000280ED02068C068216C0880206C801C8C
:1021600020644620005B401E81B2462001530120BE
:102170000190FEF78BFFC01BB04205D3701C0028F6
:1021800002D00320009069E0E08F0028C0D14620F3
:10219000005B0028BCD155E06068002802D004989C
:1021A000012809D1A06B007821680873A06B401C3E
:1021B000A063E08F401EE0873DE020688068022138
:1021C0000840022811D1E08F00280ED00198012884
:1021D0000BD1A06B007821680873A06B401CA06332
:1021E000E08F401EE0870020019020688068C007D3
:1021F000C00F002812D04620005B00280ED02068B7
:10220000007B216C0870206C401C20644620005B21
:10221000401E81B24620015301200190FEF736FF97
:10222000C01BB04202D3701C002801D1002E02D185
:102230000320009012E0E08F0028BED14620005B12
:102240000028BAD13A463146204600F02AFE00283E
:1022500003D0012000902020206600BF01215D20D6
:10226000015500BF00215C20015500BF0098D9E650
:10227000F0B585B04548007801287DD14448006814
:10228000401C4349086043480068401C41490860BD
:1022900008460068FF21F531884204DD0022022152
:1022A0003D48FEF7EDFE3B4800687D21C9008842AD
:1022B00007DD012202213848FEF7E2FE0020354901
:1022C0000860364801F028FA354801F0FFF900248B
:1022D00023E06100314A505EFEF765F806467F2133
:1022E000C905FDF7E5FF05462E49FEF71EF8A100DA
:1022F0002D4A505061002A4A505EFEF754F80646B7
:1023000023214906FEF711F805462849FDF7D0FFBD
:10231000A100274A5050601CC4B2032CD9DB244AC8
:1023200091689068FDF7C4FF214A03905168506896
:10233000FDF7BEFF1E4A019011681068FDF7B8FF57
:1023400000900199FDF75BFF02900399FDF757FF9D
:102350000490FEF74CF8044601F0E6FB0646FEF753
:1023600083F814490860FF2101310C48FEF7DEF9BB
:1023700011490860FF2100E005E002310848FEF73E
:10238000D5F90E49086005B0F0BD000040000020FE
:102390003401002044010020000400481C010020FA
:1023A000220100206811834190030020CDCC1C4104
:1023B000A8030020700000203C0100204001002004
:1023C00070B504462546681E0949884201D9012096
:1023D0000CE0681E074948610321081F01F024F939
:1023E00000200449886107200861002070BD0000BA
:1023F000FFFFFF0000E000E030B502460B4600BFE3
:102400003C20805C012801D1022030BD01253C2008
:10241000855400BF02253D2085541068446810682B
:10242000816870252046A843044618680443106854
:1024300044600F4D1068A84208D00125AD07106810
:10244000A84203D00B4D1068A84207D1802508464A
:10245000A8430146586801431068816001253D206A
:10246000855400BF00253C20855400BF0020CCE7E8
:10247000002C01400004004010B50446002C01D19E
:10248000012010BD3D20005D002805D100213C2029
:102490000155204600F022F802213D200155211D62
:1024A000206800F051FE01214620015500BF3E206A
:1024B00001553F200155402001554120015500BFE5
:1024C00000BF4220015543200155442001554520BD
:1024D000015500BF3D2001550020D2E708B501227B
:1024E0009207016891420DD100BF1049C9690122CC
:1024F00011430E4AD1611146C969C907C90F00913C
:1025000000BF11E00A4A016891420DD100BF07499E
:10251000C96902221143054AD1611146C9690222E3
:102520001140009100BF00BF08BD00000010024034
:102530000004004001463D20405C012801D00120FC
:10254000704702233D204354104B0868984208D03E
:1025500001239B070868984203D00D4B08689842F6
:102560000CD1086880684207520F062A0CD0086810
:102570000068012318430B68186005E008680068CC
:10258000012318430B6818600020D9E7002C014094
:1025900000040040F8B504460D460020009000BF3E
:1025A0003C20005D012801D10220F8BD01213C2022
:1025B000015500BF02213D20015520688668772122
:1025C000304688430646FF210902304688430646C6
:1025D000206886602868502834D00CDC202851D030
:1025E00004DC00284CD0102852D14AE030284AD0D0
:1025F00040284DD13AE060282ED0702807D0012124
:102600000903401A02D0401A42D10DE043E0EB68C2
:102610006A68A968206800F0F8FD2068866877205D
:1026200006432068866036E0EB686A68A96820681F
:1026300000F0EBFD206880680121890308432168D0
:10264000886028E0EA686968206800F031FF50215E
:10265000206800F0E8FD1EE0EA686968206800F084
:1026600040FF6021206800F0DEFD14E0EA68696840
:10267000206800F01DFF4021206800F0D4FD0AE032
:1026800000BF00BF00BF2968206800F0CCFD02E059
:102690000120009000BF00BF01213D20015500BF77
:1026A00000213C20015500BF00987EE710B586B0A0
:1026B0000446142101A8FDF797FD01218907206830
:1026C00088421CD100BF0F484069491308430D4997
:1026D000486108464069012149040840009000BF54
:1026E00000BF04200190022002900020039004907B
:1026F0000220059001A90920C006FEF7D1FB06B013
:1027000010BD000000100240F8B504460D46164604
:10271000002700BF3C20005D012801D10220F8BD48
:1027200001213C20015500BF002E06D0042E1BD0F5
:10273000082E33D00C2E62D147E02946206800F0E5
:102740007FFD20688069082108432168886120682E
:10275000806904218843216888612068806929692B
:102760000843216888614CE02946206800F0B6FDE6
:10277000206880690121C9020843216888612068B6
:102780008069012189028843216888612068806905
:102790002969090208432168886132E029462068D6
:1027A00000F0F4FD2068C069082108432168C86171
:1027B0002068C069042188432168C8612068C06915
:1027C000296908432168C8611BE02946206800F098
:1027D00033FE2068C0690121C90208432168C8612D
:1027E0002068C0690121890288432168C861206886
:1027F000C0692969090208432168C86101E001270D
:1028000000BF00BF00BF00213C20015500BF38467B
:1028100085E710B50446002C01D1012010BD3D20F4
:10282000005D002805D100213C200155204600F024
:1028300022F802213D200155211D206800F084FC72
:1028400001214620015500BF3E2001553F20015582
:10285000402001554120015500BF00BF42200155D5
:1028600043200155442001554520015500BF3D201E
:1028700001550020D2E7704770B504460D46002D83
:1028800002D13E20005D0BE0042D02D13F20005D0F
:1028900006E0082D02D14020005D01E04120005DEE
:1028A000012801D0012070BD002D03D102213E205E
:1028B00001550EE0042D03D102213F20015508E00F
:1028C000082D03D102214020015502E002214120C0
:1028D000015501222946206800F086FC1C49206829
:1028E000884207D01B492068884203D01A492068D3
:1028F000884201D1012000E00020002806D0206895
:10290000406C0121C90308432168486410492068CC
:10291000884208D0012189072068884203D00F49E6
:10292000206888420CD1206880684607760F062E02
:102930000CD020680068012108432168086005E088
:102940002068006801210843216808600020AAE788
:10295000002C0140004401400048014000040040B8
:1029600000BFFEE710B50E480E490860032048601E
:1029700000210C488160C1600521490401610321E7
:10298000090541610021017641768176C1760177A2
:102990004177FEF788F8002801D0FDF73FFF10BD12
:1029A00000640040EC01002008B500BF0A484069FF
:1029B000012108430849486108464069C007C00F23
:1029C000009000BF00BF002211460A20FEF7E2FB84
:1029D0000A20FEF7D1FB08BD0010024000B587B009
:1029E000142102A8FDF700FC00BF2F484069012117
:1029F000890408432C49486108464069012189043B
:102A00000840019000BF00BF00BF2748406909018E
:102A10000843254948610846406901218905084065
:102A2000019000BF00BF00BF1F4840694911084323
:102A30001D49486108464069012149040840019048
:102A400000BF00BF01221A210920C006FEF718FBB3
:102A5000012202211548FEF713FB022002901120EB
:102A60000390012004900320059002A90920C006CC
:102A7000FEF716FA1820029001200390049003201C
:102A8000059002A90920C006FEF70AFA022002906A
:102A90000120039004900320059002A90348FEF74B
:102AA000FFF907B000BD000000100240000400481C
:102AB00010B5124812490860FF2005304860002117
:102AC0000F48816007210902C160022101610121D3
:102AD0004161490281611021C161002101624162AD
:102AE00081620721C162002101634163FEF7C0FFDB
:102AF000002801D0FDF792FE10BD0000003001401B
:102B00001402002000B58DB0002009900A900B90AF
:102B10000C90079008901C216846FDF765FB01208A
:102B20008007214908602F20486000211E488160ED
:102B30001E49C160002101618161FFF79DFC0028F1
:102B400001D0FDF76BFE01200003099009A916488A
:102B5000FFF720FD002801D0FDF760FE1248FFF7C7
:102B600058FE002801D0FDF759FE0020079008907C
:102B700007A90D48FFF740FC002801D0FDF74EFEE5
:102B80006020009000200190029004900822694685
:102B90000548FFF7B9FD002801D0FDF73FFE0248C8
:102BA000FFF784FD0DB000BD000300200F270000DB
:102BB00000B587B000200390049005900690019026
:102BC00002901548154908602F20486000211348DD
:102BD00081601349C160002101618161FFF74CFCF4
:102BE000002801D0FDF71AFE01200003039003A97D
:102BF0000A48FFF7CFFC002801D0FDF70FFE0020A8
:102C00000190029001A90548FFF7F6FB002801D0CA
:102C1000FDF704FE07B000BD00040040480300209B
:102C2000FFFF00007047F0B585B00446E069A06181
:102C300061682068FDF734FBE061A068FDF7D7FB11
:102C400003910290E069FDF7D2FB4900490805466F
:102C5000039B029AFDF7E0FB01D20020E061216CAA
:102C6000E06BFDF71DFB05466169FDF721FB07469B
:102C7000A06CFDF7BCFB05460E46E069FDF7B7FB0F
:102C8000490049082A46334603910290FDF7C4FBE8
:102C900025D2A169E069FDF7B2FA0646012189074C
:102CA000FDF743FB0546216AFDF7A9FA20620121E1
:102CB000C907606A48400546216AFDF7FBFB04D856
:102CC0000121C907606A484007E0616A206AFDF790
:102CD000F1FB01D8606A00E0206A206246E0606C87
:102CE000FDF785FB03910290E069FDF780FB490049
:102CF00049080546039B029AFDF78EFB36D2A16C6C
:102D0000606CFDF7CDFA0390A16CE069FDF7C8FA9D
:102D10000190A169E069FDF772FA0121890700902D
:102D2000FDF703FB06460199FDF7C2FA02900399ED
:102D3000FDF7FBFA0546216AFDF761FA20620121E1
:102D4000C907606A48400546216AFDF7B3FB04D80D
:102D50000121C907606A484007E0616A206AFDF7FF
:102D6000A9FB01D8606A00E0206A2062E169E0689E
:102D7000FDF79EFAA062216A2069FDF799FAE062E8
:102D8000206B60637F20C005E16CFDF789FA03903A
:102D9000616BFDF78DFA05463846E16CFDF788FA60
:102DA00006462946FDF72BFA2063E06B20640121DB
:102DB000C907A06B48400546E16AA06AFDF71FFA03
:102DC0000390216BFDF71BFA06462946FDF768FBC9
:102DD00004D80121C907A06B484016E0E16AA06A47
:102DE000FDF70DFA0646216BFDF709FA0546A16BC2
:102DF000FDF760FB01D8A06B07E0E16AA06AFDF770
:102E0000FEF90546216BFDF7FAF9E063E06B05B0CA
:102E1000F0BD7047F8B504460E461546FF21053152
:102E2000606888420ED10121C903A068884203D09E
:102E30004911A068884205D1206800684021884374
:102E4000216808603346002280212046009500F06A
:102E5000DBF8002805D0206E2021084320660320DF
:102E6000F8BDFF2105316068884218D10121C903EE
:102E7000A068884203D04911A06888420FD1334628
:102E80000022032149022046009500F03FF8002867
:102E900005D0206E2021084320660320E0E70020B3
:102EA000DEE7F8B504460E461546334600220321F8
:102EB000C9022046009500F029F8002805D0206EB0
:102EC0002021084320660320F8BD334600228021DC
:102ED0002046009500F098F8002805D0206E2021AB
:102EE000084320660320EFE733460022032149020E
:102EF0002046009500F00AF8002805D0206E202119
:102F0000084320660320DFE70020DDE7F0B585B049
:102F100004460D4616461F4600200090FEF7B6F800
:102F20000A99401A381A0390FEF7B0F80290206808
:102F30000C3001903348006823214843000D039969
:102F40004843049056E003204002854206D1002EFB
:102F500004D101980178009168460078781C002817
:102F600048D0FEF793F80299411A0398814202D2A1
:102F70000398002837D120684068E0218843216801
:102F80004860FF210531606888420ED10121C903E4
:102F9000A068884203D04911A068884205D1206802
:102FA0000068402188432168086001214903A06A24
:102FB00088420DD100BF20680068884321680860FE
:102FC000206800680121490308432168086000BFA8
:102FD00001215D20015500BF00215C20015500BF8B
:102FE000032005B0F0BD0498002800D10390049898
:102FF000401E0490206880682840B042A3D1002081
:10300000EFE7000054010020FFB583B004460D46F1
:103010001E46FEF73BF80C99401A371AFEF736F8B1
:1030200001902F4800684001000D7843029049E06C
:10303000701C002846D0FEF729F80199401AB842C2
:1030400001D2002F37D120684068E02188432168F1
:103050004860FF210531606888420ED10121C90313
:10306000A068884203D04911A068884205D1206831
:103070000068402188432168086001214903A06A53
:1030800088420DD100BF206800688843216808602D
:10309000206800680121490308432168086000BFD7
:1030A00001215D20015500BF00215C20015500BFBA
:1030B000032007B0F0BD0298002800D10027029835
:1030C000401E0290206880682840A84201D101215A
:1030D00000E0002105988142AAD10020E9E7000024
:1030E00054010020704710B5FDF7D6FFFFF7C0F878
:1030F00010BD00B591B0342104A8FDF775F800208B
:1031000000900190029003902020049001200C90E8
:1031100000200D9004A8FEF78DF9002801D0FDF7DE
:103120007DFB072000900320019000200290039077
:1031300001216846FEF738F8002801D0FDF76EFB44
:1031400011B000BD7047000010B50268214B9842D5
:1031500006D001239B07984202D01F4B984205D10D
:1031600070241346A3431A464B681A43194B9842DE
:103170000FD001239B0798420BD0174B984208D0E1
:10318000164B984205D0164B984202D0154B9842E8
:1031900006D1032424021346A3431A46CB681A43DC
:1031A00080241346A3434C6923431A4602608B686C
:1031B000C3620B688362074B984205D0084B984264
:1031C00002D0084B984201D10B690363012343618C
:1031D00010BD0000002C0140000400400020004011
:1031E000004401400048014070B5CD06ED0E0124B9
:1031F000AC402346046A9C430462046ACE06F60E81
:103200001546B5402C43046270BD70B50C4681680C
:10321000FF2636020D46B54329461D0215432543B8
:103220002943816070BD10B50A46816870240B4641
:10323000A3431946072313431943816010BD0000BF
:1032400070B5056A6D086D000562026A436884699D
:1032500070262546B5432C46A408A4000D682C43CF
:1032600002261546B5432A468D682A43184DA842C2
:1032700000D107E0174DA84200D103E0164DA84247
:103280000AD100BF08261546B5432A46CD682A4311
:1032900004261546B5432A460D4DA84205D00D4DCE
:1032A000A84202D00C4DA8420CD1FF2601361D4683
:1032B000B5432B4676001D46B5432B464D692B433F
:1032C0008D692B43436084614D684563026270BD24
:1032D000002C0140004401400048014070B5056ADF
:1032E0001026B5430562026A4368846907263603DF
:1032F0002546B5432C46032636022546B5432C46C3
:103300000D682D022C4320261546B5432A468D68AC
:103310002D012A431A4DA84200D107E0194DA842B9
:1033200000D100BF184DA8420BD10AE080261546F7
:10333000B5432A46CD682D012A4340261546B5439C
:103340002A460F4DA84205D00E4DA84202D00E4D80
:10335000A8420ED10126B6021D46B5432B46760083
:103360001D46B5432B464D69AD002B438D69AD001D
:103370002B43436084614D688563026270BD000029
:10338000002C0140004401400048014070B5056A2E
:10339000FF260136B5430562026A4368C469702698
:1033A0002546B5432C46A408A4000D682C430126ED
:1033B00076021546B5432A468D682D022A431B4DD9
:1033C000A84200D107E01A4DA84200D100BF194D14
:1033D000A8420CD10BE00126F6021546B5432A4659
:1033E000CD682D022A4376101546B5432A460F4D67
:1033F000A84205D00E4DA84202D00E4DA8420ED1D3
:10340000012636031D46B5432B4676001D46B543BF
:103410002B464D692D012B438D692D012B434360B4
:10342000C4614D68C563026270BD0000002C01409C
:10343000004401400048014070B5056A012636038A
:10344000B5430562046A4368C26907263603154618
:10345000B5432A46032636021546B5432A460D686B
:103460002D022A43012676032546B5432C468D6856
:103470002D032C430B4DA84205D00B4DA84202D082
:103480000A4DA84207D10126B6031D46B5432B4677
:103490004D69AD012B434360C2614D680564046210
:1034A00070BD0000002C0140004401400048014074
:1034B00070B50B461446026A056A6D086D00056218
:1034C0008169F0260D46B5432946250129430A2680
:1034D0001546B5432A4615461D432A4681610262B8
:1034E00070BD70B50B461446056A1026B5430562DB
:1034F0008169026A0F2636030D46B5432946250326
:103500002943A0261546B5432A461D012A43816159
:10351000026270BD10B500F02DF90D4948600846F3
:10352000FFF781FB0A49C86B0021FCF7B9FF02D203
:1035300000200749C8630649C86BFCF73FFF00B28B
:10354000044908800020085E03490968C86310BD6B
:103550005C010020240000200003002010B50F486B
:103560000F4908600F48C8600F4808610F4848615C
:10357000FF20800588640E4848640E48C8640E48E1
:1035800048620E4888630E4848600E48FEF7D2FF36
:1035900008210C48FFF770F910BD0000000034420C
:1035A0005C01002000007A453333F33F00002041E6
:1035B00000004040CDCC4C3D00401C45000016466C
:1035C0000000C841000300202021020C01D010217E
:1035D0001046020A01D010460839020901D01046EF
:1035E000091F820801D01046891E420801D0881E9A
:1035F0007047081A7047F8B582B28BB2040C0D0CF4
:1036000010465843002126465E43370C3604801985
:10361000794116466E43370C3604801979412646A7
:103620006E438919F8BD000010B5002819DB1A4A4D
:1036300003231B02D21883089B00D2588307DC0E99
:10364000FF23A3409A438B071B0E8407E40EA3407D
:103650001A43114B032424021B198408A4001A5195
:1036600018E00E4A03071B0F083B9B089B00D2582B
:103670008307DC0EFF23A3409A438B071B0E8407AE
:10368000E40EA3401A43054B0407240F083CA4088A
:10369000A4001A5110BD000000E100E01CED00E0A4
:1036A00002E008C8121F08C1002AFAD1704770470B
:1036B000002001E001C1121F002AFBD17047000069
:1036C0000149086070470000580100201CB50446FD
:1036D000062269463B2000F0CBF8002801D00120EB
:1036E0001CBD68460078010268464078081800B2A0
:1036F00020806846807801026846C078081800B2C9
:10370000608068460079010268464079081800B276
:10371000A0800020E4E700001CB5044606226946AC
:10372000432000F0A5F8002801D001201CBD684608
:103730000078010268464078081800B22080684688
:10374000807801026846C078081800B26080684638
:103750000079010268464079081800B2A0802088EC
:103760000349088060884880A08888800020DDE7C1
:103770000C000020F8B502226946412000F078F8DC
:10378000002801D00020F8BD684600780102684694
:103790004078081804B22046FCF705FE06460449A6
:1037A000FCF7C3FD05460349FCF729FDEBE70000E4
:1037B0006666A3430000C84110B580216B2000F06D
:1037C00017F96420FDF756FB01216B2000F010F97A
:1037D0006420FDF74FFB752000F06EF82349087058
:1037E00008460078122805D0084600782E2801D017
:1037F000012010BD00216C2000F0FAF80A20FDF72E
:1038000039FB0021192000F0F3F80A20FDF732FB04
:1038100003211A2000F0ECF80A20FDF72BFB04210D
:103820001D2000F0E5F80A20FDF724FB082000F039
:103830006DF80A20FDF71EFB182000F09FF80A2003
:10384000FDF718FB00211E2000F0D2F80A20FDF73A
:1038500011FB0021232000F0CBF80A20FDF70AFB22
:103860006420FDF707FB0020C3E700000A000020EA
:10387000F8B504460D4616468020204300900022ED
:1038800008210920C006FDF7FBFB0523012269463C
:103890000848FEF7D2FA1E23324629460548FEF7AD
:1038A000E7F9012208210920C006FDF7E9FB002005
:1038B000F8BD0000140200201CB5044680202043FF
:1038C0000190002208210920C006FDF7D9FB0A2338
:1038D000012201A90C48FEF7B0FA002801D001200E
:1038E0001CBD0A23012269460748FEF7C1F90028DA
:1038F00001D00120F4E7012208210920C006FDF7CC
:10390000BFFB68460078EBE71402002010B50446C0
:10391000002C06D0082C08D0102C0BD0182C13D15A
:103920000DE013481349086014E0392000061149DE
:1039300008600FE07320C0050E4908600AE01D20F2
:1039400040060C49086005E010247320C0050949B1
:10395000086000BF00BF084906480068FCF7A8FCE3
:103960000449086021461C2000F042F810BD000008
:1039700029488038000000200AE81C4110B50446A0
:10398000002C06D0082C08D0102C0AD0182C10D1EE
:103990000BE011481149086010E011480F49086018
:1039A0000CE010480D49086008E00F480B4908601A
:1039B00004E018240C480949086000BF00BF0B4907
:1039C00006480068FCF774FC0449086021461B2087
:1039D00000F00EF810BD0000F501FA3B04000020D5
:1039E000F5017A3CF501FA3CF5017A3D03FA8E3C8B
:1039F00038B504460D46684604704570002208211B
:103A00000920C006FDF73CFB142302226946074843
:103A1000FEF713FA002801D0012038BD0122082149
:103A20000920C006FDF72CFB0020F6E71402002059
:103A3000F0B589B0074600200790089005900690E1
:103A4000039004900190029004E0FFF763FD0120D1
:103A5000FDF710FA094A51681068FCF721FC064688
:103A6000FCF7C5FC49004908044605225207044BEF
:103A7000FCF7E6FCE9D309B0F0BD00005C010020D2
:103A80009999B93F002000E0401C21498842FBDBA6
:103A9000FDF70EFBFFF72DFBFEF7A0FF0022022132
:103AA0001C48FDF7EDFAFEF77FFFFEF75BFFFEF720
:103AB000FFFFFFF727F8FFF77BF800BFFFF77CFE5B
:103AC0000028FBD1FFF74AFD13491448FFF7B0FF68
:103AD0000520FDF7CFF9FCF763FE012202210D4816
:103AE000FDF7CEFA12E00E480068401C0C49086051
:103AF00008460068FF21F531884202DB01200949B0
:103B00000870FFF707FD0120FDF7B4F9EBE70000AF
:103B10002E2700000004004836000020300000205E
:103B20004400002040000020F8B506460C46FCF793
:103B30007BFD051E0F4600D00120014349000B48C4
:103B40004908411AC90F0DD0002E01D0012100E013
:103B500000210C4361004908401AC00F02D1012026
:103B6000FFF7AEFD28463946F8BD00000000F07FA3
:103B7000000000000000000001020304060708091D
:103B80000000000001020304A83B00080000002020
:103B90005C010000F0060008DC3B00085C0100202E
:103BA0005C060000B03600089102740A092D6F12FD
:103BB000033B0AD7A33C0921B81E85EB51B8AE3FA1
:103BC000091F9A9999999999A93F643200C80329C4
:0C3BD000FA43021C014204520163127A05
:04000005080000C12E
:00000001FF
